{
  "contractName": "CertificateFactory",
  "abi": [
    {
      "constant": true,
      "inputs": [
        {
          "name": "",
          "type": "uint256"
        }
      ],
      "name": "certificateToStartTime",
      "outputs": [
        {
          "name": "",
          "type": "uint256"
        }
      ],
      "payable": false,
      "stateMutability": "view",
      "type": "function"
    },
    {
      "constant": true,
      "inputs": [
        {
          "name": "",
          "type": "uint256"
        }
      ],
      "name": "certificateToSender",
      "outputs": [
        {
          "name": "",
          "type": "address"
        }
      ],
      "payable": false,
      "stateMutability": "view",
      "type": "function"
    },
    {
      "constant": true,
      "inputs": [
        {
          "name": "",
          "type": "uint256"
        }
      ],
      "name": "certificateToCreateTime",
      "outputs": [
        {
          "name": "",
          "type": "uint256"
        }
      ],
      "payable": false,
      "stateMutability": "view",
      "type": "function"
    },
    {
      "constant": true,
      "inputs": [
        {
          "name": "",
          "type": "uint256"
        }
      ],
      "name": "certificateToEndTime",
      "outputs": [
        {
          "name": "",
          "type": "uint256"
        }
      ],
      "payable": false,
      "stateMutability": "view",
      "type": "function"
    },
    {
      "constant": true,
      "inputs": [
        {
          "name": "",
          "type": "uint256"
        }
      ],
      "name": "certificateToReceiver",
      "outputs": [
        {
          "name": "",
          "type": "address"
        }
      ],
      "payable": false,
      "stateMutability": "view",
      "type": "function"
    },
    {
      "constant": true,
      "inputs": [
        {
          "name": "",
          "type": "uint256"
        }
      ],
      "name": "certificateToReceiverProof",
      "outputs": [
        {
          "name": "",
          "type": "string"
        }
      ],
      "payable": false,
      "stateMutability": "view",
      "type": "function"
    },
    {
      "constant": true,
      "inputs": [
        {
          "name": "",
          "type": "uint256"
        }
      ],
      "name": "certificates",
      "outputs": [
        {
          "name": "sender",
          "type": "address"
        },
        {
          "name": "senderProof",
          "type": "string"
        },
        {
          "name": "receiver",
          "type": "address"
        },
        {
          "name": "receiverProof",
          "type": "string"
        },
        {
          "name": "description",
          "type": "string"
        },
        {
          "name": "startTime",
          "type": "uint256"
        },
        {
          "name": "endTime",
          "type": "uint256"
        },
        {
          "name": "creationtime",
          "type": "uint256"
        }
      ],
      "payable": false,
      "stateMutability": "view",
      "type": "function"
    },
    {
      "constant": true,
      "inputs": [
        {
          "name": "",
          "type": "uint256"
        }
      ],
      "name": "certificateToSenderProof",
      "outputs": [
        {
          "name": "",
          "type": "string"
        }
      ],
      "payable": false,
      "stateMutability": "view",
      "type": "function"
    },
    {
      "constant": true,
      "inputs": [
        {
          "name": "",
          "type": "uint256"
        }
      ],
      "name": "certificateToDescription",
      "outputs": [
        {
          "name": "",
          "type": "string"
        }
      ],
      "payable": false,
      "stateMutability": "view",
      "type": "function"
    },
    {
      "anonymous": false,
      "inputs": [
        {
          "indexed": false,
          "name": "certificateId",
          "type": "uint256"
        },
        {
          "indexed": false,
          "name": "sender",
          "type": "address"
        },
        {
          "indexed": false,
          "name": "senderProof",
          "type": "string"
        },
        {
          "indexed": false,
          "name": "receiver",
          "type": "address"
        },
        {
          "indexed": false,
          "name": "receiverProof",
          "type": "string"
        },
        {
          "indexed": false,
          "name": "description",
          "type": "string"
        },
        {
          "indexed": false,
          "name": "startTime",
          "type": "uint256"
        },
        {
          "indexed": false,
          "name": "endTime",
          "type": "uint256"
        },
        {
          "indexed": false,
          "name": "creationTime",
          "type": "uint256"
        }
      ],
      "name": "NewCertificate",
      "type": "event"
    },
    {
      "constant": false,
      "inputs": [
        {
          "name": "_senderProof",
          "type": "string"
        },
        {
          "name": "_receiver",
          "type": "address"
        },
        {
          "name": "_receiverProof",
          "type": "string"
        },
        {
          "name": "_description",
          "type": "string"
        },
        {
          "name": "_startTime",
          "type": "uint256"
        },
        {
          "name": "_endTime",
          "type": "uint256"
        }
      ],
      "name": "createCertificate",
      "outputs": [],
      "payable": false,
      "stateMutability": "nonpayable",
      "type": "function"
    }
  ],
  "bytecode": "0x6060604052341561000f57600080fd5b6112c48061001e6000396000f3006060604052600436106100a4576000357c0100000000000000000000000000000000000000000000000000000000900463ffffffff1680630ef7ebc1146100a95780630fb0cadd146100e0578063219233c1146101435780634a3e63f11461017a57806352231286146101b15780636497e10c14610214578063663b3e22146102b0578063c1eea4db146104f6578063eacfcd931461060a578063fcb052fb146106a6575b600080fd5b34156100b457600080fd5b6100ca6004808035906020019091905050610742565b6040518082815260200191505060405180910390f35b34156100eb57600080fd5b610101600480803590602001909190505061075a565b604051808273ffffffffffffffffffffffffffffffffffffffff1673ffffffffffffffffffffffffffffffffffffffff16815260200191505060405180910390f35b341561014e57600080fd5b610164600480803590602001909190505061078d565b6040518082815260200191505060405180910390f35b341561018557600080fd5b61019b60048080359060200190919050506107a5565b6040518082815260200191505060405180910390f35b34156101bc57600080fd5b6101d260048080359060200190919050506107bd565b604051808273ffffffffffffffffffffffffffffffffffffffff1673ffffffffffffffffffffffffffffffffffffffff16815260200191505060405180910390f35b341561021f57600080fd5b61023560048080359060200190919050506107f0565b6040518080602001828103825283818151815260200191508051906020019080838360005b8381101561027557808201518184015260208101905061025a565b50505050905090810190601f1680156102a25780820380516001836020036101000a031916815260200191505b509250505060405180910390f35b34156102bb57600080fd5b6102d160048080359060200190919050506108a0565b604051808973ffffffffffffffffffffffffffffffffffffffff1673ffffffffffffffffffffffffffffffffffffffff168152602001806020018873ffffffffffffffffffffffffffffffffffffffff1673ffffffffffffffffffffffffffffffffffffffff168152602001806020018060200187815260200186815260200185815260200184810384528b8181546001816001161561010002031660029004815260200191508054600181600116156101000203166002900480156103d85780601f106103ad576101008083540402835291602001916103d8565b820191906000526020600020905b8154815290600101906020018083116103bb57829003601f168201915b505084810383528981815460018160011615610100020316600290048152602001915080546001816001161561010002031660029004801561045b5780601f106104305761010080835404028352916020019161045b565b820191906000526020600020905b81548152906001019060200180831161043e57829003601f168201915b50508481038252888181546001816001161561010002031660029004815260200191508054600181600116156101000203166002900480156104de5780601f106104b3576101008083540402835291602001916104de565b820191906000526020600020905b8154815290600101906020018083116104c157829003601f168201915b50509b50505050505050505050505060405180910390f35b341561050157600080fd5b610608600480803590602001908201803590602001908080601f0160208091040260200160405190810160405280939291908181526020018383808284378201915050505050509190803573ffffffffffffffffffffffffffffffffffffffff1690602001909190803590602001908201803590602001908080601f0160208091040260200160405190810160405280939291908181526020018383808284378201915050505050509190803590602001908201803590602001908080601f01602080910402602001604051908101604052809392919081815260200183838082843782019150505050505091908035906020019091908035906020019091905050610934565b005b341561061557600080fd5b61062b6004808035906020019091905050610ee4565b6040518080602001828103825283818151815260200191508051906020019080838360005b8381101561066b578082015181840152602081019050610650565b50505050905090810190601f1680156106985780820380516001836020036101000a031916815260200191505b509250505060405180910390f35b34156106b157600080fd5b6106c76004808035906020019091905050610f94565b6040518080602001828103825283818151815260200191508051906020019080838360005b838110156107075780820151818401526020810190506106ec565b50505050905090810190601f1680156107345780820380516001836020036101000a031916815260200191505b509250505060405180910390f35b60086020528060005260406000206000915090505481565b60016020528060005260406000206000915054906101000a900473ffffffffffffffffffffffffffffffffffffffff1681565b600a6020528060005260406000206000915090505481565b60096020528060005260406000206000915090505481565b60046020528060005260406000206000915054906101000a900473ffffffffffffffffffffffffffffffffffffffff1681565b60056020528060005260406000206000915090508054600181600116156101000203166002900480601f0160208091040260200160405190810160405280929190818152602001828054600181600116156101000203166002900480156108985780601f1061086d57610100808354040283529160200191610898565b820191906000526020600020905b81548152906001019060200180831161087b57829003601f168201915b505050505081565b6000818154811015156108af57fe5b90600052602060002090600802016000915090508060000160009054906101000a900473ffffffffffffffffffffffffffffffffffffffff169080600101908060020160009054906101000a900473ffffffffffffffffffffffffffffffffffffffff1690806003019080600401908060050154908060060154908060070154905088565b60008060004292503391506001600080548060010182816109559190611044565b91600052602060002090600802016000610100604051908101604052808773ffffffffffffffffffffffffffffffffffffffff1681526020018e81526020018d73ffffffffffffffffffffffffffffffffffffffff1681526020018c81526020018b81526020018a815260200189815260200188815250909190915060008201518160000160006101000a81548173ffffffffffffffffffffffffffffffffffffffff021916908373ffffffffffffffffffffffffffffffffffffffff1602179055506020820151816001019080519060200190610a34929190611076565b5060408201518160020160006101000a81548173ffffffffffffffffffffffffffffffffffffffff021916908373ffffffffffffffffffffffffffffffffffffffff1602179055506060820151816003019080519060200190610a98929190611076565b506080820151816004019080519060200190610ab5929190611076565b5060a0820151816005015560c0820151816006015560e082015181600701555050039050816001600083815260200190815260200160002060006101000a81548173ffffffffffffffffffffffffffffffffffffffff021916908373ffffffffffffffffffffffffffffffffffffffff160217905550600360008373ffffffffffffffffffffffffffffffffffffffff1673ffffffffffffffffffffffffffffffffffffffff1681526020019081526020016000206000815480929190600101919050555088600260008381526020019081526020016000209080519060200190610ba19291906110f6565b50876004600083815260200190815260200160002060006101000a81548173ffffffffffffffffffffffffffffffffffffffff021916908373ffffffffffffffffffffffffffffffffffffffff160217905550600660008973ffffffffffffffffffffffffffffffffffffffff1673ffffffffffffffffffffffffffffffffffffffff1681526020019081526020016000206000815480929190600101919050555086600560008381526020019081526020016000209080519060200190610c6a9291906110f6565b5085600760008381526020019081526020016000209080519060200190610c929291906110f6565b5084600860008381526020019081526020016000208190555083600960008381526020019081526020016000208190555082600a6000838152602001908152602001600020819055507f671c09cf0bb87b94689e7b115fc05a007610dcf5fadcc8171d0dbb6daf7a4e5281838b8b8b8b8b8b8b604051808a81526020018973ffffffffffffffffffffffffffffffffffffffff1673ffffffffffffffffffffffffffffffffffffffff168152602001806020018873ffffffffffffffffffffffffffffffffffffffff1673ffffffffffffffffffffffffffffffffffffffff168152602001806020018060200187815260200186815260200185815260200184810384528b818151815260200191508051906020019080838360005b83811015610dc9578082015181840152602081019050610dae565b50505050905090810190601f168015610df65780820380516001836020036101000a031916815260200191505b50848103835289818151815260200191508051906020019080838360005b83811015610e2f578082015181840152602081019050610e14565b50505050905090810190601f168015610e5c5780820380516001836020036101000a031916815260200191505b50848103825288818151815260200191508051906020019080838360005b83811015610e95578082015181840152602081019050610e7a565b50505050905090810190601f168015610ec25780820380516001836020036101000a031916815260200191505b509c5050505050505050505050505060405180910390a1505050505050505050565b60026020528060005260406000206000915090508054600181600116156101000203166002900480601f016020809104026020016040519081016040528092919081815260200182805460018160011615610100020316600290048015610f8c5780601f10610f6157610100808354040283529160200191610f8c565b820191906000526020600020905b815481529060010190602001808311610f6f57829003601f168201915b505050505081565b60076020528060005260406000206000915090508054600181600116156101000203166002900480601f01602080910402602001604051908101604052809291908181526020018280546001816001161561010002031660029004801561103c5780601f106110115761010080835404028352916020019161103c565b820191906000526020600020905b81548152906001019060200180831161101f57829003601f168201915b505050505081565b815481835581811511611071576008028160080283600052602060002091820191016110709190611176565b5b505050565b828054600181600116156101000203166002900490600052602060002090601f016020900481019282601f106110b757805160ff19168380011785556110e5565b828001600101855582156110e5579182015b828111156110e45782518255916020019190600101906110c9565b5b5090506110f2919061122b565b5090565b828054600181600116156101000203166002900490600052602060002090601f016020900481019282601f1061113757805160ff1916838001178555611165565b82800160010185558215611165579182015b82811115611164578251825591602001919060010190611149565b5b509050611172919061122b565b5090565b61122891905b8082111561122457600080820160006101000a81549073ffffffffffffffffffffffffffffffffffffffff02191690556001820160006111bc9190611250565b6002820160006101000a81549073ffffffffffffffffffffffffffffffffffffffff02191690556003820160006111f39190611250565b6004820160006112039190611250565b6005820160009055600682016000905560078201600090555060080161117c565b5090565b90565b61124d91905b80821115611249576000816000905550600101611231565b5090565b90565b50805460018160011615610100020316600290046000825580601f106112765750611295565b601f016020900490600052602060002090810190611294919061122b565b5b505600a165627a7a72305820c98358e249e3833435b6aa2952438671342e5f0a2c090711547b2e2a4bdcc1b80029",
  "source": "pragma solidity ^0.4.19;\n\ncontract CertificateFactory {\n\n  struct Certificate {\n    address sender;\n    string senderProof; // to be encrypted\n\n    address receiver;\n    string receiverProof; // to be encrypted\n\n    string description; // to be encrypted\n\n    uint256 startTime;\n    uint256 endTime;\n\n    uint256 creationtime; // to be generated upon calling of NewCertificate\n  }\n\n\n\n  event NewCertificate(uint certificateId, \n                       address sender, \n                       string senderProof, \n                       address receiver,\n                       string receiverProof,\n                       string description,\n                       uint256 startTime,\n                       uint256 endTime,\n                       uint256 creationTime);\n\n  // Array of certs for the contract\n  Certificate[] public certificates;\n\n  // Mapping for sender\n  mapping(uint256 => address) public certificateToSender;\n  mapping(uint256 => string) public certificateToSenderProof;\n  mapping(address => uint256) senderCertificateCount; \n\n  // Mapping for receiver\n  mapping(uint256 => address) public certificateToReceiver;\n  mapping(uint256 => string) public certificateToReceiverProof;\n  mapping(address => uint256) receiverCertificateCount;\n\n  // Mapping for description\n  mapping(uint256 => string) public certificateToDescription;\n\n  // Mapping for timings\n  mapping(uint256 => uint256) public certificateToStartTime;\n  mapping(uint256 => uint256) public certificateToEndTime;\n  mapping(uint256 => uint256) public certificateToCreateTime;\n  \n  function createCertificate(string _senderProof,\n                             address _receiver, \n                             string _receiverProof,\n                             string _description,\n                             uint256 _startTime, \n                             uint256 _endTime) public {\n    \n    // TODO check if all fields are valid\n    // TODO limit fields to prevent infinite gas\n    // TODO encrypt field\n\n    uint256 _creationTime = now;\n    address _sender = msg.sender;\n    uint256 id = certificates.push(Certificate(_sender, \n                                        _senderProof,                    \n                                        _receiver, \n                                        _receiverProof,\n                                        _description,\n                                        _startTime, \n                                        _endTime,\n                                        _creationTime)) - 1;\n\n\n    // mappings\n    certificateToSender[id] = _sender;\n    senderCertificateCount[_sender]++;\n    certificateToSenderProof[id] = _senderProof;\n\n    certificateToReceiver[id] = _receiver;\n    receiverCertificateCount[_receiver]++;\n    certificateToReceiverProof[id] = _receiverProof;\n\n    certificateToDescription[id] = _description;\n\n    certificateToStartTime[id] = _startTime;\n    certificateToEndTime[id] = _endTime;\n    certificateToCreateTime[id] = _creationTime;\n\n    // call event\n    NewCertificate(id,\n                   _sender,\n                   _senderProof,\n                   _receiver,\n                   _receiverProof,\n                   _description,\n                   _startTime,\n                   _endTime,\n                   _creationTime);\n  }\n\n}\n\n",
  "sourcePath": "/home/ada/WebApp/certificate/contracts/CertificateFactory.sol",
  "compiler": {
    "name": "solc",
    "version": "0.4.19+commit.c4cbbb05.Emscripten.clang"
  },
  "schemaVersion": "1.0.1",
  "updatedAt": "2018-02-22T19:57:19.395Z"
}