{
  "contractName": "CertificateFactory",
  "abi": [
    {
      "constant": true,
      "inputs": [
        {
          "name": "",
          "type": "uint256"
        }
      ],
      "name": "certificateToSender",
      "outputs": [
        {
          "name": "",
          "type": "address"
        }
      ],
      "payable": false,
      "stateMutability": "view",
      "type": "function"
    },
    {
      "constant": true,
      "inputs": [
        {
          "name": "",
          "type": "uint256"
        }
      ],
      "name": "certificateToReceiver",
      "outputs": [
        {
          "name": "",
          "type": "address"
        }
      ],
      "payable": false,
      "stateMutability": "view",
      "type": "function"
    },
    {
      "constant": true,
      "inputs": [
        {
          "name": "",
          "type": "uint256"
        }
      ],
      "name": "certificates",
      "outputs": [
        {
          "name": "sender",
          "type": "address"
        },
        {
          "name": "senderProof",
          "type": "string"
        },
        {
          "name": "receiver",
          "type": "address"
        },
        {
          "name": "receiverProof",
          "type": "string"
        },
        {
          "name": "description",
          "type": "string"
        },
        {
          "name": "startTime",
          "type": "uint256"
        },
        {
          "name": "endTime",
          "type": "uint256"
        },
        {
          "name": "creationtime",
          "type": "uint256"
        }
      ],
      "payable": false,
      "stateMutability": "view",
      "type": "function"
    },
    {
      "anonymous": false,
      "inputs": [
        {
          "indexed": false,
          "name": "certificateId",
          "type": "uint256"
        },
        {
          "indexed": false,
          "name": "sender",
          "type": "address"
        },
        {
          "indexed": false,
          "name": "receiver",
          "type": "address"
        }
      ],
      "name": "NewCertificate",
      "type": "event"
    },
    {
      "constant": false,
      "inputs": [
        {
          "name": "_senderProof",
          "type": "string"
        },
        {
          "name": "_receiver",
          "type": "address"
        },
        {
          "name": "_receiverProof",
          "type": "string"
        },
        {
          "name": "_description",
          "type": "string"
        },
        {
          "name": "_startTime",
          "type": "uint256"
        },
        {
          "name": "_endTime",
          "type": "uint256"
        }
      ],
      "name": "createCertificate",
      "outputs": [],
      "payable": false,
      "stateMutability": "nonpayable",
      "type": "function"
    }
  ],
  "bytecode": "0x6060604052341561000f57600080fd5b610b128061001e6000396000f300606060405260043610610062576000357c0100000000000000000000000000000000000000000000000000000000900463ffffffff1680630fb0cadd1461006757806352231286146100ca578063663b3e221461012d578063c1eea4db14610373575b600080fd5b341561007257600080fd5b6100886004808035906020019091905050610487565b604051808273ffffffffffffffffffffffffffffffffffffffff1673ffffffffffffffffffffffffffffffffffffffff16815260200191505060405180910390f35b34156100d557600080fd5b6100eb60048080359060200190919050506104ba565b604051808273ffffffffffffffffffffffffffffffffffffffff1673ffffffffffffffffffffffffffffffffffffffff16815260200191505060405180910390f35b341561013857600080fd5b61014e60048080359060200190919050506104ed565b604051808973ffffffffffffffffffffffffffffffffffffffff1673ffffffffffffffffffffffffffffffffffffffff168152602001806020018873ffffffffffffffffffffffffffffffffffffffff1673ffffffffffffffffffffffffffffffffffffffff168152602001806020018060200187815260200186815260200185815260200184810384528b8181546001816001161561010002031660029004815260200191508054600181600116156101000203166002900480156102555780601f1061022a57610100808354040283529160200191610255565b820191906000526020600020905b81548152906001019060200180831161023857829003601f168201915b50508481038352898181546001816001161561010002031660029004815260200191508054600181600116156101000203166002900480156102d85780601f106102ad576101008083540402835291602001916102d8565b820191906000526020600020905b8154815290600101906020018083116102bb57829003601f168201915b505084810382528881815460018160011615610100020316600290048152602001915080546001816001161561010002031660029004801561035b5780601f106103305761010080835404028352916020019161035b565b820191906000526020600020905b81548152906001019060200180831161033e57829003601f168201915b50509b50505050505050505050505060405180910390f35b341561037e57600080fd5b610485600480803590602001908201803590602001908080601f0160208091040260200160405190810160405280939291908181526020018383808284378201915050505050509190803573ffffffffffffffffffffffffffffffffffffffff1690602001909190803590602001908201803590602001908080601f0160208091040260200160405190810160405280939291908181526020018383808284378201915050505050509190803590602001908201803590602001908080601f01602080910402602001604051908101604052809392919081815260200183838082843782019150505050505091908035906020019091908035906020019091905050610581565b005b60016020528060005260406000206000915054906101000a900473ffffffffffffffffffffffffffffffffffffffff1681565b60036020528060005260406000206000915054906101000a900473ffffffffffffffffffffffffffffffffffffffff1681565b6000818154811015156104fc57fe5b90600052602060002090600802016000915090508060000160009054906101000a900473ffffffffffffffffffffffffffffffffffffffff169080600101908060020160009054906101000a900473ffffffffffffffffffffffffffffffffffffffff1690806003019080600401908060050154908060060154908060070154905088565b60008060004292503391506001600080548060010182816105a29190610912565b91600052602060002090600802016000610100604051908101604052808773ffffffffffffffffffffffffffffffffffffffff1681526020018e81526020018d73ffffffffffffffffffffffffffffffffffffffff1681526020018c81526020018b81526020018a815260200189815260200188815250909190915060008201518160000160006101000a81548173ffffffffffffffffffffffffffffffffffffffff021916908373ffffffffffffffffffffffffffffffffffffffff1602179055506020820151816001019080519060200190610681929190610944565b5060408201518160020160006101000a81548173ffffffffffffffffffffffffffffffffffffffff021916908373ffffffffffffffffffffffffffffffffffffffff16021790555060608201518160030190805190602001906106e5929190610944565b506080820151816004019080519060200190610702929190610944565b5060a0820151816005015560c0820151816006015560e082015181600701555050039050816001600083815260200190815260200160002060006101000a81548173ffffffffffffffffffffffffffffffffffffffff021916908373ffffffffffffffffffffffffffffffffffffffff160217905550600260008373ffffffffffffffffffffffffffffffffffffffff1673ffffffffffffffffffffffffffffffffffffffff16815260200190815260200160002060008154809291906001019190505550876003600083815260200190815260200160002060006101000a81548173ffffffffffffffffffffffffffffffffffffffff021916908373ffffffffffffffffffffffffffffffffffffffff160217905550600460008973ffffffffffffffffffffffffffffffffffffffff1673ffffffffffffffffffffffffffffffffffffffff168152602001908152602001600020600081548092919060010191905055507f17f51b9d43b04662e12caa19a5cf305f83531e418c3f45abc505f0fb5490109581838a604051808481526020018373ffffffffffffffffffffffffffffffffffffffff1673ffffffffffffffffffffffffffffffffffffffff1681526020018273ffffffffffffffffffffffffffffffffffffffff1673ffffffffffffffffffffffffffffffffffffffff168152602001935050505060405180910390a1505050505050505050565b81548183558181151161093f5760080281600802836000526020600020918201910161093e91906109c4565b5b505050565b828054600181600116156101000203166002900490600052602060002090601f016020900481019282601f1061098557805160ff19168380011785556109b3565b828001600101855582156109b3579182015b828111156109b2578251825591602001919060010190610997565b5b5090506109c09190610a79565b5090565b610a7691905b80821115610a7257600080820160006101000a81549073ffffffffffffffffffffffffffffffffffffffff0219169055600182016000610a0a9190610a9e565b6002820160006101000a81549073ffffffffffffffffffffffffffffffffffffffff0219169055600382016000610a419190610a9e565b600482016000610a519190610a9e565b600582016000905560068201600090556007820160009055506008016109ca565b5090565b90565b610a9b91905b80821115610a97576000816000905550600101610a7f565b5090565b90565b50805460018160011615610100020316600290046000825580601f10610ac45750610ae3565b601f016020900490600052602060002090810190610ae29190610a79565b5b505600a165627a7a72305820ab561ad033b309d426eb858f89431a9e2b631f901809ff6dfb4e37e1c131d8c10029",
  "source": "pragma solidity ^0.4.19;\n\n\ncontract CertificateFactory {\n\n  struct Certificate {\n    address sender;\n    string senderProof; // to be encrypted\n\n    address receiver;\n    string receiverProof; // to be encrypted\n\n    string description; // to be encrypted\n\n    uint256 startTime;\n    uint256 endTime;\n\n    uint256 creationtime; // to be generated upon calling of NewCertificate\n  }\n\n\n\n  event NewCertificate(uint certificateId, address sender, address receiver);\n\n  // Array of certs for the contract\n  Certificate[] public certificates;\n\n  // Mapping for sender\n  mapping(uint => address) public certificateToSender;\n  mapping(address => uint) senderCertificateCount; \n\n  // Mapping for receiver\n  mapping(uint => address) public certificateToReceiver;\n  mapping(address => uint) receiverCertificateCount;\n\n  \n  function createCertificate(string _senderProof,\n                             address _receiver, \n                             string _receiverProof,\n                             string _description,\n                             uint256 _startTime, \n                             uint256 _endTime) public {\n    \n    // TODO check if all fields are valid\n    // TODO encrypt field\n\n    uint256 _creationTime = now;\n    address _sender = msg.sender;\n    uint256 id = certificates.push(Certificate(_sender, \n                                        _senderProof,                    \n                                        _receiver, \n                                        _receiverProof,\n                                        _description,\n                                        _startTime, \n                                        _endTime,\n                                        _creationTime)) - 1;\n\n\n    // map the certificate id to the sender and receiver\n    certificateToSender[id] = _sender;\n    senderCertificateCount[_sender]++;\n\n    certificateToReceiver[id] = _receiver;\n    receiverCertificateCount[_receiver]++;\n\n    // call event\n    NewCertificate(id, _sender, _receiver);\n    \n    // produce an encryption token\n  }\n\n}\n",
  "sourcePath": "/home/ada/WebApp/certificate/contracts/CertificateFactory.sol",
  "compiler": {
    "name": "solc",
    "version": "0.4.19+commit.c4cbbb05.Emscripten.clang"
  },
  "schemaVersion": "1.0.1",
  "updatedAt": "2018-02-20T08:09:01.893Z"
}