{
  "contractName": "CertificateFactory",
  "abi": [
    {
      "constant": true,
      "inputs": [
        {
          "name": "",
          "type": "uint256"
        }
      ],
      "name": "certificateToSender",
      "outputs": [
        {
          "name": "",
          "type": "address"
        }
      ],
      "payable": false,
      "stateMutability": "view",
      "type": "function"
    },
    {
      "constant": true,
      "inputs": [
        {
          "name": "",
          "type": "uint256"
        }
      ],
      "name": "certificateToCreateTime",
      "outputs": [
        {
          "name": "",
          "type": "uint256"
        }
      ],
      "payable": false,
      "stateMutability": "view",
      "type": "function"
    },
    {
      "constant": true,
      "inputs": [
        {
          "name": "",
          "type": "uint256"
        }
      ],
      "name": "certificateToReceiver",
      "outputs": [
        {
          "name": "",
          "type": "address"
        }
      ],
      "payable": false,
      "stateMutability": "view",
      "type": "function"
    },
    {
      "constant": true,
      "inputs": [
        {
          "name": "",
          "type": "uint256"
        }
      ],
      "name": "certificateToReceiverProof",
      "outputs": [
        {
          "name": "",
          "type": "string"
        }
      ],
      "payable": false,
      "stateMutability": "view",
      "type": "function"
    },
    {
      "constant": true,
      "inputs": [
        {
          "name": "",
          "type": "uint256"
        }
      ],
      "name": "certificates",
      "outputs": [
        {
          "name": "sender",
          "type": "address"
        },
        {
          "name": "senderProof",
          "type": "string"
        },
        {
          "name": "receiver",
          "type": "address"
        },
        {
          "name": "receiverProof",
          "type": "string"
        },
        {
          "name": "description",
          "type": "string"
        },
        {
          "name": "creationtime",
          "type": "uint256"
        }
      ],
      "payable": false,
      "stateMutability": "view",
      "type": "function"
    },
    {
      "constant": true,
      "inputs": [
        {
          "name": "",
          "type": "uint256"
        }
      ],
      "name": "certificateToSenderProof",
      "outputs": [
        {
          "name": "",
          "type": "string"
        }
      ],
      "payable": false,
      "stateMutability": "view",
      "type": "function"
    },
    {
      "constant": true,
      "inputs": [
        {
          "name": "",
          "type": "uint256"
        }
      ],
      "name": "certificateToDescription",
      "outputs": [
        {
          "name": "",
          "type": "string"
        }
      ],
      "payable": false,
      "stateMutability": "view",
      "type": "function"
    },
    {
      "anonymous": false,
      "inputs": [
        {
          "indexed": false,
          "name": "certificateId",
          "type": "uint256"
        },
        {
          "indexed": false,
          "name": "sender",
          "type": "address"
        },
        {
          "indexed": false,
          "name": "senderProof",
          "type": "string"
        },
        {
          "indexed": false,
          "name": "receiver",
          "type": "address"
        },
        {
          "indexed": false,
          "name": "receiverProof",
          "type": "string"
        },
        {
          "indexed": false,
          "name": "description",
          "type": "string"
        },
        {
          "indexed": false,
          "name": "creationTime",
          "type": "uint256"
        }
      ],
      "name": "NewCertificate",
      "type": "event"
    },
    {
      "constant": false,
      "inputs": [
        {
          "name": "_senderProof",
          "type": "string"
        },
        {
          "name": "_receiver",
          "type": "address"
        },
        {
          "name": "_receiverProof",
          "type": "string"
        },
        {
          "name": "_description",
          "type": "string"
        }
      ],
      "name": "createCertificate",
      "outputs": [],
      "payable": false,
      "stateMutability": "nonpayable",
      "type": "function"
    }
  ],
  "bytecode": "0x6060604052341561000f57600080fd5b6111a48061001e6000396000f30060606040526004361061008e576000357c0100000000000000000000000000000000000000000000000000000000900463ffffffff1680630fb0cadd14610093578063219233c1146100f6578063522312861461012d5780636497e10c14610190578063663b3e221461022c578063b7478e6614610464578063eacfcd9314610566578063fcb052fb14610602575b600080fd5b341561009e57600080fd5b6100b4600480803590602001909190505061069e565b604051808273ffffffffffffffffffffffffffffffffffffffff1673ffffffffffffffffffffffffffffffffffffffff16815260200191505060405180910390f35b341561010157600080fd5b61011760048080359060200190919050506106d1565b6040518082815260200191505060405180910390f35b341561013857600080fd5b61014e60048080359060200190919050506106e9565b604051808273ffffffffffffffffffffffffffffffffffffffff1673ffffffffffffffffffffffffffffffffffffffff16815260200191505060405180910390f35b341561019b57600080fd5b6101b1600480803590602001909190505061071c565b6040518080602001828103825283818151815260200191508051906020019080838360005b838110156101f15780820151818401526020810190506101d6565b50505050905090810190601f16801561021e5780820380516001836020036101000a031916815260200191505b509250505060405180910390f35b341561023757600080fd5b61024d60048080359060200190919050506107cc565b604051808773ffffffffffffffffffffffffffffffffffffffff1673ffffffffffffffffffffffffffffffffffffffff168152602001806020018673ffffffffffffffffffffffffffffffffffffffff1673ffffffffffffffffffffffffffffffffffffffff16815260200180602001806020018581526020018481038452898181546001816001161561010002031660029004815260200191508054600181600116156101000203166002900480156103485780601f1061031d57610100808354040283529160200191610348565b820191906000526020600020905b81548152906001019060200180831161032b57829003601f168201915b50508481038352878181546001816001161561010002031660029004815260200191508054600181600116156101000203166002900480156103cb5780601f106103a0576101008083540402835291602001916103cb565b820191906000526020600020905b8154815290600101906020018083116103ae57829003601f168201915b505084810382528681815460018160011615610100020316600290048152602001915080546001816001161561010002031660029004801561044e5780601f106104235761010080835404028352916020019161044e565b820191906000526020600020905b81548152906001019060200180831161043157829003601f168201915b5050995050505050505050505060405180910390f35b341561046f57600080fd5b610564600480803590602001908201803590602001908080601f0160208091040260200160405190810160405280939291908181526020018383808284378201915050505050509190803573ffffffffffffffffffffffffffffffffffffffff1690602001909190803590602001908201803590602001908080601f0160208091040260200160405190810160405280939291908181526020018383808284378201915050505050509190803590602001908201803590602001908080601f01602080910402602001604051908101604052809392919081815260200183838082843782019150505050505091905050610854565b005b341561057157600080fd5b6105876004808035906020019091905050610dd4565b6040518080602001828103825283818151815260200191508051906020019080838360005b838110156105c75780820151818401526020810190506105ac565b50505050905090810190601f1680156105f45780820380516001836020036101000a031916815260200191505b509250505060405180910390f35b341561060d57600080fd5b6106236004808035906020019091905050610e84565b6040518080602001828103825283818151815260200191508051906020019080838360005b83811015610663578082015181840152602081019050610648565b50505050905090810190601f1680156106905780820380516001836020036101000a031916815260200191505b509250505060405180910390f35b60016020528060005260406000206000915054906101000a900473ffffffffffffffffffffffffffffffffffffffff1681565b60086020528060005260406000206000915090505481565b60046020528060005260406000206000915054906101000a900473ffffffffffffffffffffffffffffffffffffffff1681565b60056020528060005260406000206000915090508054600181600116156101000203166002900480601f0160208091040260200160405190810160405280929190818152602001828054600181600116156101000203166002900480156107c45780601f10610799576101008083540402835291602001916107c4565b820191906000526020600020905b8154815290600101906020018083116107a757829003601f168201915b505050505081565b6000818154811015156107db57fe5b90600052602060002090600602016000915090508060000160009054906101000a900473ffffffffffffffffffffffffffffffffffffffff169080600101908060020160009054906101000a900473ffffffffffffffffffffffffffffffffffffffff1690806003019080600401908060050154905086565b6000806000610100875110151561086a57600080fd5b610100855110151561087b57600080fd5b610100845110151561088c57600080fd5b4292503391506001600080548060010182816108a89190610f34565b9160005260206000209060060201600060c0604051908101604052808773ffffffffffffffffffffffffffffffffffffffff1681526020018c81526020018b73ffffffffffffffffffffffffffffffffffffffff1681526020018a815260200189815260200188815250909190915060008201518160000160006101000a81548173ffffffffffffffffffffffffffffffffffffffff021916908373ffffffffffffffffffffffffffffffffffffffff160217905550602082015181600101908051906020019061097a929190610f66565b5060408201518160020160006101000a81548173ffffffffffffffffffffffffffffffffffffffff021916908373ffffffffffffffffffffffffffffffffffffffff16021790555060608201518160030190805190602001906109de929190610f66565b5060808201518160040190805190602001906109fb929190610f66565b5060a082015181600501555050039050816001600083815260200190815260200160002060006101000a81548173ffffffffffffffffffffffffffffffffffffffff021916908373ffffffffffffffffffffffffffffffffffffffff160217905550600360008373ffffffffffffffffffffffffffffffffffffffff1673ffffffffffffffffffffffffffffffffffffffff1681526020019081526020016000206000815480929190600101919050555086600260008381526020019081526020016000209080519060200190610ad3929190610fe6565b50856004600083815260200190815260200160002060006101000a81548173ffffffffffffffffffffffffffffffffffffffff021916908373ffffffffffffffffffffffffffffffffffffffff160217905550600660008773ffffffffffffffffffffffffffffffffffffffff1673ffffffffffffffffffffffffffffffffffffffff1681526020019081526020016000206000815480929190600101919050555084600560008381526020019081526020016000209080519060200190610b9c929190610fe6565b5083600760008381526020019081526020016000209080519060200190610bc4929190610fe6565b508260086000838152602001908152602001600020819055507f8c7d04602714636400e38eae9bbcb4c1f7b10344411d17b7f58931d068a9330981838989898989604051808881526020018773ffffffffffffffffffffffffffffffffffffffff1673ffffffffffffffffffffffffffffffffffffffff168152602001806020018673ffffffffffffffffffffffffffffffffffffffff1673ffffffffffffffffffffffffffffffffffffffff1681526020018060200180602001858152602001848103845289818151815260200191508051906020019080838360005b83811015610cbd578082015181840152602081019050610ca2565b50505050905090810190601f168015610cea5780820380516001836020036101000a031916815260200191505b50848103835287818151815260200191508051906020019080838360005b83811015610d23578082015181840152602081019050610d08565b50505050905090810190601f168015610d505780820380516001836020036101000a031916815260200191505b50848103825286818151815260200191508051906020019080838360005b83811015610d89578082015181840152602081019050610d6e565b50505050905090810190601f168015610db65780820380516001836020036101000a031916815260200191505b509a505050505050505050505060405180910390a150505050505050565b60026020528060005260406000206000915090508054600181600116156101000203166002900480601f016020809104026020016040519081016040528092919081815260200182805460018160011615610100020316600290048015610e7c5780601f10610e5157610100808354040283529160200191610e7c565b820191906000526020600020905b815481529060010190602001808311610e5f57829003601f168201915b505050505081565b60076020528060005260406000206000915090508054600181600116156101000203166002900480601f016020809104026020016040519081016040528092919081815260200182805460018160011615610100020316600290048015610f2c5780601f10610f0157610100808354040283529160200191610f2c565b820191906000526020600020905b815481529060010190602001808311610f0f57829003601f168201915b505050505081565b815481835581811511610f6157600602816006028360005260206000209182019101610f609190611066565b5b505050565b828054600181600116156101000203166002900490600052602060002090601f016020900481019282601f10610fa757805160ff1916838001178555610fd5565b82800160010185558215610fd5579182015b82811115610fd4578251825591602001919060010190610fb9565b5b509050610fe2919061110b565b5090565b828054600181600116156101000203166002900490600052602060002090601f016020900481019282601f1061102757805160ff1916838001178555611055565b82800160010185558215611055579182015b82811115611054578251825591602001919060010190611039565b5b509050611062919061110b565b5090565b61110891905b8082111561110457600080820160006101000a81549073ffffffffffffffffffffffffffffffffffffffff02191690556001820160006110ac9190611130565b6002820160006101000a81549073ffffffffffffffffffffffffffffffffffffffff02191690556003820160006110e39190611130565b6004820160006110f39190611130565b60058201600090555060060161106c565b5090565b90565b61112d91905b80821115611129576000816000905550600101611111565b5090565b90565b50805460018160011615610100020316600290046000825580601f106111565750611175565b601f016020900490600052602060002090810190611174919061110b565b5b505600a165627a7a72305820a783fa0e5680cc587f3bafcef0f9950ad6c00cfa94ff4db1a863cc3e9d33415b0029",
  "source": "pragma solidity ^0.4.19;\n\ncontract CertificateFactory {\n\n  struct Certificate {\n    address sender;\n    string senderProof; // to be encrypted\n\n    address receiver;\n    string receiverProof; // to be encrypted\n\n    string description; // to be encrypted\n\n    uint256 creationtime; // to be generated upon calling of NewCertificate\n  }\n\n\n  event NewCertificate(uint certificateId, \n                       address sender, \n                       string senderProof, \n                       address receiver,\n                       string receiverProof,\n                       string description,\n                       uint256 creationTime);\n\n  // Array of certs for the contract\n  Certificate[] public certificates;\n\n  // Mapping for sender\n  mapping(uint256 => address) public certificateToSender;\n  mapping(uint256 => string) public certificateToSenderProof;\n  mapping(address => uint256) senderCertificateCount; \n\n  // Mapping for receiver\n  mapping(uint256 => address) public certificateToReceiver;\n  mapping(uint256 => string) public certificateToReceiverProof;\n  mapping(address => uint256) receiverCertificateCount;\n\n  // Mapping for description\n  mapping(uint256 => string) public certificateToDescription;\n\n  // Mapping for timings\n  mapping(uint256 => uint256) public certificateToCreateTime;\n  \n  function createCertificate(string _senderProof,\n                             address _receiver, \n                             string _receiverProof,\n                             string _description) public {\n    \n    // limit the string length\n    require(bytes(_senderProof).length < 256);\n    require(bytes(_receiverProof).length < 256);\n    require(bytes(_description).length < 256); \n\n    // time registered on blockchain\n    uint256 _creationTime = now;\n    address _sender = msg.sender;\n\n    // store certificate in the array\n    uint256 id = certificates.push(Certificate(_sender, \n                                        _senderProof,                    \n                                        _receiver, \n                                        _receiverProof,\n                                        _description,\n                                        _creationTime)) - 1;\n\n\n    // mappings\n    certificateToSender[id] = _sender;\n    senderCertificateCount[_sender]++;\n    certificateToSenderProof[id] = _senderProof;\n\n    certificateToReceiver[id] = _receiver;\n    receiverCertificateCount[_receiver]++;\n    certificateToReceiverProof[id] = _receiverProof;\n\n    certificateToDescription[id] = _description;\n\n    certificateToCreateTime[id] = _creationTime;\n\n    // call event\n    NewCertificate(id,\n                   _sender,\n                   _senderProof,\n                   _receiver,\n                   _receiverProof,\n                   _description,\n                   _creationTime);\n  }\n}\n\n\n",
  "sourcePath": "/home/ada/WebApp/certificate/contracts/CertificateFactory.sol",
  "compiler": {
    "name": "solc",
    "version": "0.4.19+commit.c4cbbb05.Emscripten.clang"
  },
  "schemaVersion": "1.0.1",
  "updatedAt": "2018-03-07T05:06:47.745Z"
}