{
  "contractName": "CertificateFactory",
  "abi": [
    {
      "constant": true,
      "inputs": [
        {
          "name": "",
          "type": "uint256"
        }
      ],
      "name": "certificateToSender",
      "outputs": [
        {
          "name": "",
          "type": "address"
        }
      ],
      "payable": false,
      "stateMutability": "view",
      "type": "function"
    },
    {
      "constant": true,
      "inputs": [
        {
          "name": "",
          "type": "uint256"
        }
      ],
      "name": "certificateToCreateTime",
      "outputs": [
        {
          "name": "",
          "type": "uint256"
        }
      ],
      "payable": false,
      "stateMutability": "view",
      "type": "function"
    },
    {
      "constant": true,
      "inputs": [
        {
          "name": "",
          "type": "uint256"
        }
      ],
      "name": "certificateToReceiver",
      "outputs": [
        {
          "name": "",
          "type": "address"
        }
      ],
      "payable": false,
      "stateMutability": "view",
      "type": "function"
    },
    {
      "constant": true,
      "inputs": [
        {
          "name": "",
          "type": "uint256"
        }
      ],
      "name": "certificateToReceiverProof",
      "outputs": [
        {
          "name": "",
          "type": "bytes32"
        }
      ],
      "payable": false,
      "stateMutability": "view",
      "type": "function"
    },
    {
      "constant": true,
      "inputs": [
        {
          "name": "",
          "type": "uint256"
        }
      ],
      "name": "certificates",
      "outputs": [
        {
          "name": "sender",
          "type": "address"
        },
        {
          "name": "senderProof",
          "type": "bytes32"
        },
        {
          "name": "receiver",
          "type": "address"
        },
        {
          "name": "receiverProof",
          "type": "bytes32"
        },
        {
          "name": "description",
          "type": "bytes32"
        },
        {
          "name": "creationtime",
          "type": "uint256"
        }
      ],
      "payable": false,
      "stateMutability": "view",
      "type": "function"
    },
    {
      "constant": true,
      "inputs": [
        {
          "name": "",
          "type": "uint256"
        }
      ],
      "name": "certificateToSenderProof",
      "outputs": [
        {
          "name": "",
          "type": "bytes32"
        }
      ],
      "payable": false,
      "stateMutability": "view",
      "type": "function"
    },
    {
      "constant": true,
      "inputs": [
        {
          "name": "",
          "type": "uint256"
        }
      ],
      "name": "certificateToDescription",
      "outputs": [
        {
          "name": "",
          "type": "bytes32"
        }
      ],
      "payable": false,
      "stateMutability": "view",
      "type": "function"
    },
    {
      "anonymous": false,
      "inputs": [
        {
          "indexed": false,
          "name": "certificateId",
          "type": "uint256"
        },
        {
          "indexed": false,
          "name": "sender",
          "type": "address"
        },
        {
          "indexed": false,
          "name": "senderProof",
          "type": "bytes32"
        },
        {
          "indexed": false,
          "name": "receiver",
          "type": "address"
        },
        {
          "indexed": false,
          "name": "receiverProof",
          "type": "bytes32"
        },
        {
          "indexed": false,
          "name": "description",
          "type": "bytes32"
        },
        {
          "indexed": false,
          "name": "creationTime",
          "type": "uint256"
        }
      ],
      "name": "NewCertificate",
      "type": "event"
    },
    {
      "constant": false,
      "inputs": [
        {
          "name": "_senderProof",
          "type": "bytes32"
        },
        {
          "name": "_receiver",
          "type": "address"
        },
        {
          "name": "_receiverProof",
          "type": "bytes32"
        },
        {
          "name": "_description",
          "type": "bytes32"
        }
      ],
      "name": "createCertificate",
      "outputs": [],
      "payable": false,
      "stateMutability": "nonpayable",
      "type": "function"
    }
  ],
  "bytecode": "0x6060604052341561000f57600080fd5b6109e68061001e6000396000f30060606040526004361061008e576000357c0100000000000000000000000000000000000000000000000000000000900463ffffffff1680630fb0cadd14610093578063219233c1146100f6578063522312861461012d5780636497e10c14610190578063663b3e22146101cf578063a5e22f2c14610299578063eacfcd93146102f9578063fcb052fb14610338575b600080fd5b341561009e57600080fd5b6100b46004808035906020019091905050610377565b604051808273ffffffffffffffffffffffffffffffffffffffff1673ffffffffffffffffffffffffffffffffffffffff16815260200191505060405180910390f35b341561010157600080fd5b61011760048080359060200190919050506103aa565b6040518082815260200191505060405180910390f35b341561013857600080fd5b61014e60048080359060200190919050506103c2565b604051808273ffffffffffffffffffffffffffffffffffffffff1673ffffffffffffffffffffffffffffffffffffffff16815260200191505060405180910390f35b341561019b57600080fd5b6101b160048080359060200190919050506103f5565b60405180826000191660001916815260200191505060405180910390f35b34156101da57600080fd5b6101f0600480803590602001909190505061040d565b604051808773ffffffffffffffffffffffffffffffffffffffff1673ffffffffffffffffffffffffffffffffffffffff16815260200186600019166000191681526020018573ffffffffffffffffffffffffffffffffffffffff1673ffffffffffffffffffffffffffffffffffffffff16815260200184600019166000191681526020018360001916600019168152602001828152602001965050505050505060405180910390f35b34156102a457600080fd5b6102f760048080356000191690602001909190803573ffffffffffffffffffffffffffffffffffffffff169060200190919080356000191690602001909190803560001916906020019091905050610498565b005b341561030457600080fd5b61031a60048080359060200190919050506108cb565b60405180826000191660001916815260200191505060405180910390f35b341561034357600080fd5b61035960048080359060200190919050506108e3565b60405180826000191660001916815260200191505060405180910390f35b60016020528060005260406000206000915054906101000a900473ffffffffffffffffffffffffffffffffffffffff1681565b60086020528060005260406000206000915090505481565b60046020528060005260406000206000915054906101000a900473ffffffffffffffffffffffffffffffffffffffff1681565b60056020528060005260406000206000915090505481565b60008181548110151561041c57fe5b90600052602060002090600602016000915090508060000160009054906101000a900473ffffffffffffffffffffffffffffffffffffffff16908060010154908060020160009054906101000a900473ffffffffffffffffffffffffffffffffffffffff16908060030154908060040154908060050154905086565b6000806000610100602060ff161015156104b157600080fd5b610100602060ff161015156104c557600080fd5b610100602060ff161015156104d957600080fd5b4292503391506001600080548060010182816104f591906108fb565b9160005260206000209060060201600060c0604051908101604052808773ffffffffffffffffffffffffffffffffffffffff1681526020018c6000191681526020018b73ffffffffffffffffffffffffffffffffffffffff1681526020018a6000191681526020018960001916815260200188815250909190915060008201518160000160006101000a81548173ffffffffffffffffffffffffffffffffffffffff021916908373ffffffffffffffffffffffffffffffffffffffff1602179055506020820151816001019060001916905560408201518160020160006101000a81548173ffffffffffffffffffffffffffffffffffffffff021916908373ffffffffffffffffffffffffffffffffffffffff160217905550606082015181600301906000191690556080820151816004019060001916905560a082015181600501555050039050816001600083815260200190815260200160002060006101000a81548173ffffffffffffffffffffffffffffffffffffffff021916908373ffffffffffffffffffffffffffffffffffffffff160217905550600360008373ffffffffffffffffffffffffffffffffffffffff1673ffffffffffffffffffffffffffffffffffffffff1681526020019081526020016000206000815480929190600101919050555086600260008381526020019081526020016000208160001916905550856004600083815260200190815260200160002060006101000a81548173ffffffffffffffffffffffffffffffffffffffff021916908373ffffffffffffffffffffffffffffffffffffffff160217905550600660008773ffffffffffffffffffffffffffffffffffffffff1673ffffffffffffffffffffffffffffffffffffffff1681526020019081526020016000206000815480929190600101919050555084600560008381526020019081526020016000208160001916905550836007600083815260200190815260200160002081600019169055508260086000838152602001908152602001600020819055507ff2cc9ebc84772142037bde85869cc99533e25df221ef28369ce306b1e06c779d81838989898989604051808881526020018773ffffffffffffffffffffffffffffffffffffffff1673ffffffffffffffffffffffffffffffffffffffff16815260200186600019166000191681526020018573ffffffffffffffffffffffffffffffffffffffff1673ffffffffffffffffffffffffffffffffffffffff1681526020018460001916600019168152602001836000191660001916815260200182815260200197505050505050505060405180910390a150505050505050565b60026020528060005260406000206000915090505481565b60076020528060005260406000206000915090505481565b81548183558181151161092857600602816006028360005260206000209182019101610927919061092d565b5b505050565b6109b791905b808211156109b357600080820160006101000a81549073ffffffffffffffffffffffffffffffffffffffff021916905560018201600090556002820160006101000a81549073ffffffffffffffffffffffffffffffffffffffff021916905560038201600090556004820160009055600582016000905550600601610933565b5090565b905600a165627a7a7230582085bba946bd76ae637f050e5c4fdebbcc45bdbbbadab97d2af0d73ea63d1953e00029",
  "source": "pragma solidity ^0.4.19;\n\ncontract CertificateFactory {\n\n  struct Certificate {\n    address sender;\n    bytes32 senderProof; // to be encrypted\n    address receiver;\n    bytes32 receiverProof; // to be encrypted\n    bytes32 description; // to be encrypted\n    uint256 creationtime; // to be generated upon calling of NewCertificate\n  }\n\n\n  event NewCertificate(uint certificateId, \n                       address sender, \n                       bytes32 senderProof, \n                       address receiver,\n                       bytes32 receiverProof,\n                       bytes32 description,\n                       uint256 creationTime);\n\n  // Array of certs for the contract\n  Certificate[] public certificates;\n\n  // Mapping for sender\n  mapping(uint256 => address) public certificateToSender;\n  mapping(uint256 => bytes32) public certificateToSenderProof;\n  mapping(address => uint256) senderCertificateCount; \n\n  // Mapping for receiver\n  mapping(uint256 => address) public certificateToReceiver;\n  mapping(uint256 => bytes32) public certificateToReceiverProof;\n  mapping(address => uint256) receiverCertificateCount;\n\n  // Mapping for description\n  mapping(uint256 => bytes32) public certificateToDescription;\n\n  // Mapping for timings\n  mapping(uint256 => uint256) public certificateToCreateTime;\n  \n  function createCertificate(bytes32 _senderProof,\n                             address _receiver, \n                             bytes32 _receiverProof,\n                             bytes32 _description) public {\n    \n    // ascii to byte conversion to be done locally via interface\n    // limit the string length\n    require(_senderProof.length < 256);\n    require(_receiverProof.length < 256);\n    require(_description.length < 256); \n\n    // time registered on blockchain\n    uint256 _creationTime = now;\n    address _sender = msg.sender;\n\n    // store certificate in the array\n    uint256 id = certificates.push(Certificate(_sender, \n                                        _senderProof,                    \n                                        _receiver, \n                                        _receiverProof,\n                                        _description,\n                                        _creationTime)) - 1;\n\n\n    // mappings\n    certificateToSender[id] = _sender;\n    senderCertificateCount[_sender]++;\n    certificateToSenderProof[id] = _senderProof;\n\n    certificateToReceiver[id] = _receiver;\n    receiverCertificateCount[_receiver]++;\n    certificateToReceiverProof[id] = _receiverProof;\n\n    certificateToDescription[id] = _description;\n\n    certificateToCreateTime[id] = _creationTime;\n\n    // call event\n    NewCertificate(id,\n                   _sender,\n                   _senderProof,\n                   _receiver,\n                   _receiverProof,\n                   _description,\n                   _creationTime);\n  }\n}\n\n\n",
  "sourcePath": "/home/ada/WebApp/certificate/contracts/CertificateFactory.sol",
  "compiler": {
    "name": "solc",
    "version": "0.4.19+commit.c4cbbb05.Emscripten.clang"
  },
  "schemaVersion": "1.0.1",
  "updatedAt": "2018-03-07T05:33:05.546Z"
}